{
  "contractName": "CrowdFunding",
  "abi": [
    {
      "anonymous": false,
      "inputs": [
        {
          "indexed": false,
          "internalType": "uint256",
          "name": "id",
          "type": "uint256"
        }
      ],
      "name": "CampaignCancelled",
      "type": "event"
    },
    {
      "anonymous": false,
      "inputs": [
        {
          "indexed": false,
          "internalType": "uint256",
          "name": "id",
          "type": "uint256"
        },
        {
          "indexed": false,
          "internalType": "address",
          "name": "owner",
          "type": "address"
        },
        {
          "indexed": false,
          "internalType": "uint256",
          "name": "goal",
          "type": "uint256"
        },
        {
          "indexed": false,
          "internalType": "uint256",
          "name": "deadline",
          "type": "uint256"
        }
      ],
      "name": "CampaignCreated",
      "type": "event"
    },
    {
      "anonymous": false,
      "inputs": [
        {
          "indexed": false,
          "internalType": "uint256",
          "name": "id",
          "type": "uint256"
        },
        {
          "indexed": false,
          "internalType": "address",
          "name": "rater",
          "type": "address"
        },
        {
          "indexed": false,
          "internalType": "uint8",
          "name": "rating",
          "type": "uint8"
        }
      ],
      "name": "CampaignRated",
      "type": "event"
    },
    {
      "anonymous": false,
      "inputs": [
        {
          "indexed": false,
          "internalType": "uint256",
          "name": "id",
          "type": "uint256"
        },
        {
          "indexed": false,
          "internalType": "string",
          "name": "field",
          "type": "string"
        }
      ],
      "name": "CampaignUpdated",
      "type": "event"
    },
    {
      "anonymous": false,
      "inputs": [
        {
          "indexed": false,
          "internalType": "uint256",
          "name": "id",
          "type": "uint256"
        },
        {
          "indexed": false,
          "internalType": "address",
          "name": "contributor",
          "type": "address"
        },
        {
          "indexed": false,
          "internalType": "uint256",
          "name": "amount",
          "type": "uint256"
        }
      ],
      "name": "ContributionReceived",
      "type": "event"
    },
    {
      "anonymous": false,
      "inputs": [
        {
          "indexed": false,
          "internalType": "uint256",
          "name": "id",
          "type": "uint256"
        },
        {
          "indexed": false,
          "internalType": "uint256",
          "name": "amount",
          "type": "uint256"
        }
      ],
      "name": "FundsWithdrawn",
      "type": "event"
    },
    {
      "anonymous": false,
      "inputs": [
        {
          "indexed": false,
          "internalType": "uint256",
          "name": "id",
          "type": "uint256"
        },
        {
          "indexed": false,
          "internalType": "address",
          "name": "contributor",
          "type": "address"
        },
        {
          "indexed": false,
          "internalType": "uint256",
          "name": "amount",
          "type": "uint256"
        }
      ],
      "name": "RefundClaimed",
      "type": "event"
    },
    {
      "inputs": [],
      "name": "campaignCount",
      "outputs": [
        {
          "internalType": "uint256",
          "name": "",
          "type": "uint256"
        }
      ],
      "stateMutability": "view",
      "type": "function",
      "constant": true
    },
    {
      "inputs": [
        {
          "internalType": "uint256",
          "name": "",
          "type": "uint256"
        }
      ],
      "name": "campaigns",
      "outputs": [
        {
          "internalType": "address payable",
          "name": "owner",
          "type": "address"
        },
        {
          "internalType": "string",
          "name": "title",
          "type": "string"
        },
        {
          "internalType": "string",
          "name": "description",
          "type": "string"
        },
        {
          "internalType": "uint256",
          "name": "goal",
          "type": "uint256"
        },
        {
          "internalType": "uint256",
          "name": "deadline",
          "type": "uint256"
        },
        {
          "internalType": "uint256",
          "name": "amountCollected",
          "type": "uint256"
        },
        {
          "internalType": "bool",
          "name": "goalReached",
          "type": "bool"
        },
        {
          "internalType": "bool",
          "name": "cancelled",
          "type": "bool"
        },
        {
          "internalType": "uint256",
          "name": "totalRatings",
          "type": "uint256"
        },
        {
          "internalType": "uint256",
          "name": "ratingCount",
          "type": "uint256"
        }
      ],
      "stateMutability": "view",
      "type": "function",
      "constant": true
    },
    {
      "inputs": [
        {
          "internalType": "uint256",
          "name": "",
          "type": "uint256"
        },
        {
          "internalType": "address",
          "name": "",
          "type": "address"
        }
      ],
      "name": "ratings",
      "outputs": [
        {
          "internalType": "uint8",
          "name": "",
          "type": "uint8"
        }
      ],
      "stateMutability": "view",
      "type": "function",
      "constant": true
    },
    {
      "inputs": [
        {
          "internalType": "string",
          "name": "_title",
          "type": "string"
        },
        {
          "internalType": "string",
          "name": "_description",
          "type": "string"
        },
        {
          "internalType": "uint256",
          "name": "_goal",
          "type": "uint256"
        },
        {
          "internalType": "uint256",
          "name": "_durationInSeconds",
          "type": "uint256"
        }
      ],
      "name": "createCampaign",
      "outputs": [],
      "stateMutability": "nonpayable",
      "type": "function"
    },
    {
      "inputs": [
        {
          "internalType": "uint256",
          "name": "_id",
          "type": "uint256"
        }
      ],
      "name": "cancelCampaign",
      "outputs": [],
      "stateMutability": "nonpayable",
      "type": "function"
    },
    {
      "inputs": [
        {
          "internalType": "uint256",
          "name": "_id",
          "type": "uint256"
        }
      ],
      "name": "donate",
      "outputs": [],
      "stateMutability": "payable",
      "type": "function",
      "payable": true
    },
    {
      "inputs": [
        {
          "internalType": "uint256",
          "name": "_id",
          "type": "uint256"
        },
        {
          "internalType": "string",
          "name": "_newTitle",
          "type": "string"
        }
      ],
      "name": "updateTitle",
      "outputs": [],
      "stateMutability": "nonpayable",
      "type": "function"
    },
    {
      "inputs": [
        {
          "internalType": "uint256",
          "name": "_id",
          "type": "uint256"
        },
        {
          "internalType": "string",
          "name": "_newDesc",
          "type": "string"
        }
      ],
      "name": "updateDescription",
      "outputs": [],
      "stateMutability": "nonpayable",
      "type": "function"
    },
    {
      "inputs": [
        {
          "internalType": "uint256",
          "name": "_id",
          "type": "uint256"
        },
        {
          "internalType": "uint256",
          "name": "_newGoal",
          "type": "uint256"
        }
      ],
      "name": "updateGoal",
      "outputs": [],
      "stateMutability": "nonpayable",
      "type": "function"
    },
    {
      "inputs": [
        {
          "internalType": "uint256",
          "name": "_id",
          "type": "uint256"
        },
        {
          "internalType": "uint256",
          "name": "_extraSeconds",
          "type": "uint256"
        }
      ],
      "name": "extendDeadline",
      "outputs": [],
      "stateMutability": "nonpayable",
      "type": "function"
    },
    {
      "inputs": [
        {
          "internalType": "uint256",
          "name": "_id",
          "type": "uint256"
        }
      ],
      "name": "withdrawFunds",
      "outputs": [],
      "stateMutability": "nonpayable",
      "type": "function"
    },
    {
      "inputs": [
        {
          "internalType": "uint256",
          "name": "_id",
          "type": "uint256"
        }
      ],
      "name": "claimRefund",
      "outputs": [],
      "stateMutability": "nonpayable",
      "type": "function"
    },
    {
      "inputs": [
        {
          "internalType": "uint256",
          "name": "_id",
          "type": "uint256"
        },
        {
          "internalType": "uint8",
          "name": "_rating",
          "type": "uint8"
        }
      ],
      "name": "rateCampaign",
      "outputs": [],
      "stateMutability": "nonpayable",
      "type": "function"
    },
    {
      "inputs": [
        {
          "internalType": "uint256",
          "name": "_id",
          "type": "uint256"
        }
      ],
      "name": "getAverageRating",
      "outputs": [
        {
          "internalType": "uint256",
          "name": "",
          "type": "uint256"
        }
      ],
      "stateMutability": "view",
      "type": "function",
      "constant": true
    },
    {
      "inputs": [
        {
          "internalType": "uint256",
          "name": "_id",
          "type": "uint256"
        }
      ],
      "name": "getCampaign",
      "outputs": [
        {
          "internalType": "address",
          "name": "owner",
          "type": "address"
        },
        {
          "internalType": "string",
          "name": "title",
          "type": "string"
        },
        {
          "internalType": "string",
          "name": "description",
          "type": "string"
        },
        {
          "internalType": "uint256",
          "name": "goal",
          "type": "uint256"
        },
        {
          "internalType": "uint256",
          "name": "deadline",
          "type": "uint256"
        },
        {
          "internalType": "uint256",
          "name": "amountCollected",
          "type": "uint256"
        },
        {
          "internalType": "bool",
          "name": "goalReached",
          "type": "bool"
        },
        {
          "internalType": "bool",
          "name": "cancelled",
          "type": "bool"
        },
        {
          "internalType": "uint256",
          "name": "donorCount",
          "type": "uint256"
        },
        {
          "internalType": "uint256",
          "name": "averageRating",
          "type": "uint256"
        }
      ],
      "stateMutability": "view",
      "type": "function",
      "constant": true
    },
    {
      "inputs": [
        {
          "internalType": "uint256",
          "name": "_id",
          "type": "uint256"
        }
      ],
      "name": "getDonors",
      "outputs": [
        {
          "internalType": "address[]",
          "name": "",
          "type": "address[]"
        },
        {
          "internalType": "uint256[]",
          "name": "",
          "type": "uint256[]"
        }
      ],
      "stateMutability": "view",
      "type": "function",
      "constant": true
    }
  ],
  "bytecode": "0x6080806040523461001a576000805561178590816100208239f35b600080fdfe60406080815260048036101561001457600080fd5b600090813560e01c8063141961bc1461136557806314dee4b3146111cf578063155dd5ee1461107057806317b7e03e1461104557806322aebeec14610f625780632951651114610dfc5780632d1fdef614610d405780632de650ba14610c8757806345598b4a14610afc5780634bab058514610ab25780635598f8cc146109e55780635786ead2146108435780635b7baf641461063d5780637274e30d14610620578063a318f269146102985763f14faf6f146100d057600080fd5b6020928360031936011261029457813591828452600185528184209061010060ff600684015460081c161561164a565b8082015442101561025f57341561022c5760078201903386528187528386205415610194575b509160057f865c884d49c8cecaef108efb20f7d282f26c0f9b0d24dd48e5592d4e02ec658d949261018e94883389525282872061016434825461160f565b90550161017234825461160f565b9055519081523360208201523460408201529081906060820190565b0390a180f35b956008830180549068010000000000000000821015610219577f865c884d49c8cecaef108efb20f7d282f26c0f9b0d24dd48e5592d4e02ec658d9798509161020c6101ee8361018e9998979560016005989601815561161c565b81546001600160a01b0360039290921b91821b19163390911b179055565b9796509150919293610126565b634e487b7160e01b885260418952602488fd5b825162461bcd60e51b8152908101869052600d60248201526c2d32b937903237b730ba34b7b760991b6044820152606490fd5b825162461bcd60e51b8152908101869052600f60248201526e111958591b1a5b99481c185cdcd959608a1b6044820152606490fd5b8280fd5b50913461061c57608036600319011261061c5767ffffffffffffffff928035848111610618576102cb9036908301611545565b602435858111610614576102e29036908401611545565b926044359182156105df576102f786546115ea565b808755865260019460209580875283882092336bffffffffffffffffffffffff60a01b855416178455818401908051908b82116105cc57908083928b61033e8e96546113ed565b601f8097818311610576575b92505050508b908d868411600114610515579261050a575b5050600019600383901b1c191690841b1790555b600284019280519a8b116104f7578a61038f85546113ed565b8381116104b2575b505088918b1160011461042857998060809998979695949381938c9d7f91b289a829e71d811b8c69e4a24ba2d40d115d8a236e9a724cb3bb2d43cf72239d9461041d575b50501b916000199060031b1c19161790555b8260038201556103ff6064354261160f565b9384910155865493815194855233908501528301526060820152a180f35b0151925038806103db565b838a52888a209a9190601f1983168b5b81811061049d5750917f91b289a829e71d811b8c69e4a24ba2d40d115d8a236e9a724cb3bb2d43cf72239b9c918460809c9b9a99989796959410610484575b505050811b0190556103ed565b015160001960f88460031b161c19169055388080610477565b838301518e559c85019c928b01928b01610438565b858c52838b8d20918c82850160051c840194106104ee575b0160051c019084905b8281106104e357508c9150610397565b8c81550184906104d3565b925081926104ca565b634e487b7160e01b8a526041885260248afd5b015190503880610362565b8581528d8120889550929190601f198516908f5b82821061055f5750508411610546575b505050811b019055610376565b015160001960f88460031b161c19169055388080610539565b8385015186558a979095019493840193018f610529565b8394955087819492939452209181860160051c83019386106105c3575b859493910160051c9091019087908f5b8382106105b5578f935088915061034a565b81558594508891018f6105a3565b92508192610593565b634e487b7160e01b8b526041895260248bfd5b815162461bcd60e51b8152602081860152600f60248201526e0476f616c206d757374206265203e3608c1b6044820152606490fd5b8480fd5b8380fd5b5080fd5b82843461061c578160031936011261061c57602091549051908152f35b503461061c57602036600319011261061c578035808352600191826020528484206007810193338652846020528686205494851561080c5733875260205285878120556005820161068f8682546116bb565b905585808080883382f115610802579060080185825b6106ea575b87518581523360208201526040810187905287907ff3f402280ef0a7905e124aa621b65eaeb2725c343e8b36d398ed78c29daf285c90806060810161018e565b8154808210156107fc576106fe828461161c565b90546003926001600160a01b0392909190841b1c8216331461072c57505050610726906115ea565b826106a5565b95999591945091600019918281019081116107e9579061076184610753610780948861161c565b905490891b1c16918661161c565b90919082549060031b9160018060a01b03809116831b921b1916179055565b825480156107d6577ff3f402280ef0a7905e124aa621b65eaeb2725c343e8b36d398ed78c29daf285c9899509061018e959493929101926107c1848461161c565b81939154921b1b1916905555949338806106aa565b634e487b7160e01b895260318a52602489fd5b634e487b7160e01b8a5260118b5260248afd5b506106aa565b86513d87823e3d90fd5b875162461bcd60e51b81526020818601526011602482015270139bdd1a1a5b99c81d1bc81c99599d5b99607a1b6044820152606490fd5b50823461029457610853366115a1565b8185949294526001916020928084528085882061087a60018060a01b038254163314611682565b019280519267ffffffffffffffff84116109d2575061089984546113ed565b601f811161098c575b50849088601f8511600114610911579380808996956000805160206117308339815191529b99956005999560809c9894610906575b50501b916000199060031b1c19161790555b8151948552840152820152647469746c6560d81b6060820152a180f35b015192508d806108d7565b508489528589209293929190601f1984168a5b818110610977575093600080516020611730833981519152999793600597938a97938360809c981061095e575b505050811b0190556108e9565b015160001960f88460031b161c191690558b8080610951565b82840151855593860193928801928801610924565b848952858920601f850160051c8101918786106109c8575b601f0160051c019083905b8281106109bd5750506108a2565b8a81550183906109af565b90915081906109a4565b634e487b7160e01b895260419052602488fd5b508290346102945760203660031901126102945781813593848152600160205220809360ff60018060a01b0383541694600384015494840154600585015490610a7d600687015493610a536002610a4c6001610a4560088d01549b6116c8565b9b0161145f565b9c0161145f565b610a7082519c8d9c8d5260208d61014091829101528d0190611505565b918b8303908c0152611505565b966060890152608088015260a0870152818116151560c087015260081c16151560e08501526101008401526101208301520390f35b508290346102945781600319360112610294576024356001600160a01b03811691908290036106185760209360ff9284923582526002865282822090825285522054169051908152f35b50823461029457602090816003193601126106185782358085526001808452828620805490959293926001600160a01b039182163303610c4c57600687019081549060ff8260081c16610c15575061ff001916610100179055909460078101919060080187875b610b95575b887f403b6718db13878ac16c27decb08f09d3a10f116c7c25af575ff5bfbc11ae9e688888851908152a180f35b8154811015610c10578883610baa838561161c565b90549060031b1c16808252858952868220908154918215908115610bdd575b5050505050610bd7906115ea565b87610b63565b8490558392839283928390610c07575bf115610bfd57888a808080610bc9565b84513d8a823e3d90fd5b506108fc610bed565b610b68565b855162461bcd60e51b81529081018890526011602482015270105b1c9958591e4818d85b98d95b1b1959607a1b6044820152606490fd5b835162461bcd60e51b8152908101869052601560248201527413db9b1e481bdddb995c8818d85b8818d85b98d95b605a1b6044820152606490fd5b5082903461029457610c98366115d4565b8185949294526001602052818520610cba60018060a01b038254163314611682565b6005810154821115610cfd57600301558051928352602083018190528201526319dbd85b60e21b606082015260008051602061173083398151915290608090a180f35b825162461bcd60e51b8152602081860152601a60248201527f476f616c206d7573742065786365656420636f6c6c65637465640000000000006044820152606490fd5b50823461029457610d50366115d4565b90928385526001602052828520610d7160018060a01b038254163314611682565b8215610dc957926000805160206117308339815191529492610d9b6011936080960191825461160f565b9055805192835280602084015282015270191958591b1a5b9948195e1d195b991959607a1b6060820152a180f35b835162461bcd60e51b8152602081840152600d60248201526c4d757374206164642074696d6560981b6044820152606490fd5b50829034610294576020908160031936011261061857358352600180825282842060088101805495929390610e3087611703565b95610e3d81519788611427565b878752610e4988611703565b9783880194601f19809a01368737610e6082611703565b93610e6d84519586611427565b828552610e7983611703565b8587019b01368c376007889201915b838110610eff575050505080519681880191885251809152606087019390855b818110610ee357505050858303868301525180835291810195925b828110610ed05785870386f35b8351875295810195928101928401610ec3565b82516001600160a01b0316865294840194918401918701610ea8565b808b610f3b829c9e9c610f19610f5695879e9c9d9e61161c565b90546001600160a01b03949160031b1c8416610f35838361171b565b5261171b565b5116885283895285882054610f50828961171b565b526115ea565b9a989a97969597610e88565b5082903461029457816003193601126102945735906024359160ff8316809303610618577fe0655aba9e39d7da9f51135135c6e59d4f5727f34bf55837e1c8e9ea961bbb4a9260609282865260206001815281872060028252828820338952825260ff83892054168481151560001461101d57610fe86009610fed9394019384546116bb565b61160f565b90555b8387526002815281872033885281528187208360ff1982541617905581519384523390840152820152a180f35b5050806009600a920161103186825461160f565b90550161103e81546115ea565b9055610ff0565b5091903461106d57602036600319011261106d5750611066602092356116c8565b9051908152f35b80fd5b5082346102945760209182600319360112610618578035908185526001845282852060018060a01b03815416918233036111a0578082015442106111715760068201908154906110c660ff8360081c161561164a565b60ff821661113a57508780946005829583956001859660ff19161790550190815496879255828215611131575bf115611127577fd66662c0ded9e58fd31d5e44944bcfd07ffc15e6927ecc1382e7941cb7bd24c4938351928352820152a180f35b82513d86823e3d90fd5b506108fc6110f3565b865162461bcd60e51b8152908101889052601160248201527020b63932b0b23c903bb4ba34323930bbb760791b6044820152606490fd5b845162461bcd60e51b81529081018690526009602482015268139bdd08195b99195960ba1b6044820152606490fd5b845162461bcd60e51b815290810186905260096024820152682737ba1037bbb732b960b91b6044820152606490fd5b508234610294576111df366115a1565b818594929452600191602092808452600285882061120760018060a01b038254163314611682565b019280519267ffffffffffffffff84116109d2575061122684546113ed565b601f811161131f575b50849088601f85116001146112a4579380808996956000805160206117308339815191529b9995600b999560809c9894611299575b50501b916000199060031b1c19161790555b81519485528401528201526a3232b9b1b934b83a34b7b760a91b6060820152a180f35b015192508d80611264565b508489528589209293929190601f1984168a5b81811061130a575093600080516020611730833981519152999793600b97938a97938360809c98106112f1575b505050811b019055611276565b015160001960f88460031b161c191690558b80806112e4565b828401518555938601939288019288016112b7565b848952858920601f850160051c81019187861061135b575b601f0160051c019083905b82811061135057505061122f565b8a8155018390611342565b9091508190611337565b5091903461106d57602036600319011261106d578190833581526001602052209160018060a01b038354169161139d6001850161145f565b9360ff6113ac6002830161145f565b92600383015494830154600584015490610a7d600686015493600a600988015497015497610a7082519c8d9c8d5260208d61014091829101528d0190611505565b90600182811c9216801561141d575b602083101461140757565b634e487b7160e01b600052602260045260246000fd5b91607f16916113fc565b90601f8019910116810190811067ffffffffffffffff82111761144957604052565b634e487b7160e01b600052604160045260246000fd5b9060405191826000825492611473846113ed565b9081845260019485811690816000146114e2575060011461149f575b505061149d92500383611427565b565b9093915060005260209081600020936000915b8183106114ca57505061149d9350820101388061148f565b855488840185015294850194879450918301916114b2565b91505061149d94506020925060ff191682840152151560051b820101388061148f565b919082519283825260005b848110611531575050826000602080949584010152601f8019910116010190565b602081830181015184830182015201611510565b81601f8201121561159c5780359067ffffffffffffffff8211611449576040519261157a601f8401601f191660200185611427565b8284526020838301011161159c57816000926020809301838601378301015290565b600080fd5b90604060031983011261159c57600435916024359067ffffffffffffffff821161159c576115d191600401611545565b90565b604090600319011261159c576004359060243590565b60001981146115f95760010190565b634e487b7160e01b600052601160045260246000fd5b919082018092116115f957565b80548210156116345760005260206000200190600090565b634e487b7160e01b600052603260045260246000fd5b1561165157565b60405162461bcd60e51b815260206004820152600960248201526810d85b98d95b1b195960ba1b6044820152606490fd5b1561168957565b60405162461bcd60e51b815260206004820152600a60248201526927b7363c9037bbb732b960b11b6044820152606490fd5b919082039182116115f957565b60005260016020526040600020600a8101549081156116fc57600901546064810290808204606414901517156115f9570490565b5050600090565b67ffffffffffffffff81116114495760051b60200190565b80518210156116345760209160051b01019056fe7a9a4f151cc0b6349bd7062416b8f68d1d73c3f457efc221520eb5547595d2d8a26469706673582212200d08589fb77e20a7ab358381e09a6d631909a6552cf59692245d77b8b95219f764736f6c63430008130033",
  "immutableReferences": {},
  "source": "// SPDX-License-Identifier: MIT\npragma solidity ^0.8.0;\n\ncontract CrowdFunding {\n    struct Campaign {\n        address payable owner;\n        string title;\n        string description;\n        uint goal;\n        uint deadline;\n        uint amountCollected;\n        bool goalReached;\n        bool cancelled;\n        mapping(address => uint) contributions;\n        address[] donors;\n        uint totalRatings;\n        uint ratingCount;\n    }\n\n    uint public campaignCount = 0;\n    mapping(uint => Campaign) public campaigns;\n    mapping(uint => mapping(address => uint8)) public ratings;\n\n    event CampaignCreated(uint id, address owner, uint goal, uint deadline);\n    event CampaignUpdated(uint id, string field);\n    event ContributionReceived(uint id, address contributor, uint amount);\n    event FundsWithdrawn(uint id, uint amount);\n    event RefundClaimed(uint id, address contributor, uint amount);\n    event CampaignCancelled(uint id);\n    event CampaignRated(uint id, address rater, uint8 rating);\n\n    function createCampaign(\n        string memory _title,\n        string memory _description,\n        uint _goal,\n        uint _durationInSeconds\n    ) public {\n        require(_goal > 0, \"Goal must be >0\");\n        campaignCount++;\n        Campaign storage c = campaigns[campaignCount];\n        c.owner = payable(msg.sender);\n        c.title = _title;\n        c.description = _description;\n        c.goal = _goal;\n        c.deadline = block.timestamp + _durationInSeconds;\n        emit CampaignCreated(campaignCount, msg.sender, _goal, c.deadline);\n    }\n\n    function cancelCampaign(uint _id) public {\n        Campaign storage c = campaigns[_id];\n        require(msg.sender == c.owner, \"Only owner can cancel\");\n        require(!c.cancelled, \"Already cancelled\");\n        c.cancelled = true;\n        for (uint i = 0; i < c.donors.length; i++) {\n            address donor = c.donors[i];\n            uint amount = c.contributions[donor];\n            if (amount > 0) {\n                c.contributions[donor] = 0;\n                payable(donor).transfer(amount);\n            }\n        }\n        emit CampaignCancelled(_id);\n    }\n\n    function donate(uint _id) public payable {\n        Campaign storage c = campaigns[_id];\n        require(!c.cancelled, \"Cancelled\");\n        require(block.timestamp < c.deadline, \"Deadline passed\");\n        require(msg.value > 0, \"Zero donation\");\n\n        if (c.contributions[msg.sender] == 0) {\n            c.donors.push(msg.sender);\n        }\n\n        c.contributions[msg.sender] += msg.value;\n        c.amountCollected += msg.value;\n        emit ContributionReceived(_id, msg.sender, msg.value);\n    }\n\n    function updateTitle(uint _id, string memory _newTitle) public {\n        Campaign storage c = campaigns[_id];\n        require(msg.sender == c.owner, \"Only owner\");\n        c.title = _newTitle;\n        emit CampaignUpdated(_id, \"title\");\n    }\n\n    function updateDescription(uint _id, string memory _newDesc) public {\n        Campaign storage c = campaigns[_id];\n        require(msg.sender == c.owner, \"Only owner\");\n        c.description = _newDesc;\n        emit CampaignUpdated(_id, \"description\");\n    }\n\n    function updateGoal(uint _id, uint _newGoal) public {\n        Campaign storage c = campaigns[_id];\n        require(msg.sender == c.owner, \"Only owner\");\n        require(_newGoal > c.amountCollected, \"Goal must exceed collected\");\n        c.goal = _newGoal;\n        emit CampaignUpdated(_id, \"goal\");\n    }\n\n    function extendDeadline(uint _id, uint _extraSeconds) public {\n        Campaign storage c = campaigns[_id];\n        require(msg.sender == c.owner, \"Only owner\");\n        require(_extraSeconds > 0, \"Must add time\");\n        c.deadline += _extraSeconds;\n        emit CampaignUpdated(_id, \"deadline extended\");\n    }\n\n    function withdrawFunds(uint _id) public {\n        Campaign storage c = campaigns[_id];\n        require(msg.sender == c.owner, \"Not owner\");\n        require(block.timestamp >= c.deadline, \"Not ended\");\n        require(!c.cancelled, \"Cancelled\");\n        require(!c.goalReached, \"Already withdrawn\");\n\n        c.goalReached = true;\n        uint amount = c.amountCollected;\n        c.amountCollected = 0;\n        c.owner.transfer(amount);\n        emit FundsWithdrawn(_id, amount);\n    }\n\n    function claimRefund(uint _id) public {\n        Campaign storage c = campaigns[_id];\n        uint contributed = c.contributions[msg.sender];\n        require(contributed > 0, \"Nothing to refund\");\n        c.contributions[msg.sender] = 0;\n        c.amountCollected -= contributed;\n        payable(msg.sender).transfer(contributed);\n\n        for (uint i = 0; i < c.donors.length; i++) {\n            if (c.donors[i] == msg.sender) {\n                c.donors[i] = c.donors[c.donors.length - 1];\n                c.donors.pop();\n                break;\n            }\n        }\n\n        emit RefundClaimed(_id, msg.sender, contributed);\n    }\n\n    function rateCampaign(uint _id, uint8 _rating) public {\n        Campaign storage c = campaigns[_id];\n        uint8 prev = ratings[_id][msg.sender];\n        if (prev > 0) {\n            c.totalRatings = c.totalRatings - prev + _rating;\n        } else {\n            c.totalRatings += _rating;\n            c.ratingCount++;\n        }\n        ratings[_id][msg.sender] = _rating;\n        emit CampaignRated(_id, msg.sender, _rating);\n    }\n\n    function getAverageRating(uint _id) public view returns (uint) {\n        Campaign storage c = campaigns[_id];\n        if (c.ratingCount == 0) return 0;\n        return (c.totalRatings * 100) / c.ratingCount;\n    }\n\n    function getCampaign(\n        uint _id\n    )\n        public\n        view\n        returns (\n            address owner,\n            string memory title,\n            string memory description,\n            uint goal,\n            uint deadline,\n            uint amountCollected,\n            bool goalReached,\n            bool cancelled,\n            uint donorCount,\n            uint averageRating\n        )\n    {\n        Campaign storage c = campaigns[_id];\n        return (\n            c.owner,\n            c.title,\n            c.description,\n            c.goal,\n            c.deadline,\n            c.amountCollected,\n            c.goalReached,\n            c.cancelled,\n            c.donors.length,\n            getAverageRating(_id)\n        );\n    }\n\n    function getDonors(\n        uint _id\n    ) public view returns (address[] memory, uint[] memory) {\n        Campaign storage c = campaigns[_id];\n        uint len = c.donors.length;\n        address[] memory donors = new address[](len);\n        uint[] memory amounts = new uint[](len);\n        for (uint i = 0; i < len; i++) {\n            donors[i] = c.donors[i];\n            amounts[i] = c.contributions[donors[i]];\n        }\n        return (donors, amounts);\n    }\n}\n",
  "sourcePath": "/home/mughil/Desktop/AdvCrypto/DappCrowdfunding/contracts/CrowdFunding.sol",
  "compiler": {
    "name": "solc",
    "version": "0.8.19+commit.7dd6d404.Emscripten.clang"
  },
  "schemaVersion": "3.4.16",
  "updatedAt": "2025-10-30T16:50:22.897Z",
  "networkType": "ethereum",
  "devdoc": {
    "kind": "dev",
    "methods": {},
    "version": 1
  },
  "userdoc": {
    "kind": "user",
    "methods": {},
    "version": 1
  }
}